:020000040800F2
:1000000030040020D9000008B5050008850200086A
:1000100000000000000000000000000000000000E0
:100020000000000000000000000000003107000890
:100030000000000000000000C5060008A10700083D
:10004000EB000008EB000008EB000008EB000008E4
:10005000EB000008EB000008EB000008EB000008D4
:10006000EB000008EB000008EB000008EB000008C4
:10007000EB000008EB000008EB000008EB000008B4
:10008000EB000008AD070008EB000008EB000008DB
:10009000EB000008EB000008EB000008EB00000894
:1000A000EB000008EB000008EB000008EB00000884
:1000B000EB00000835080008EB000008EB00000822
:1000C0000448854600F040F800480047FD0A000853
:1000D000C046C0463004002004488047044800471A
:1000E000FEE7FEE7FEE7FEE7FEE7FEE7A9070008FA
:1000F000C100000830B50B46014600202022012433
:1001000009E00D46D5409D4205D31D469540491B4B
:100110002546954040191546521E002DF1DC30BD94
:1001200070B500242546002801DA01244042002948
:1001300001DA01254942FFF7DDFFAC4200D0404221
:10014000002C00D0494270BD064C0125064E05E04A
:10015000E36807CC2B430C3C98471034B442F7D3E8
:10016000FFF7B2FFA00B0008C00B00080349CA6AE2
:1001700002600A6B4260496B8160704780F7FF1F25
:1001800070B5044600F00EF80546601C02D0044825
:100190000078241800F006F8401BA042FAD370BD86
:1001A0001C00002001488068704700001C000020EF
:1001B0000248816802788918816070471C0000201D
:1001C00010B506480168102211430160002000F0BC
:1001D00007F800F027F8002010BD000000200240C2
:1001E00070B504460D4D7D202978C000FFF782FFD1
:1001F00001460B480068FFF77DFF00F02BF8002850
:1002000009D1042C07D200222146401E00F01EF81E
:1002100000206C6070BD012070BD00001C0000203B
:100220002800002008B50848816901221143816136
:10023000816911400091C26901040A43C261C06929
:100240000840009008BD00000010024010B500F00A
:100250006FFB10BD094910B5401E884201D901202D
:1002600010BD074C60610321081F00F061FB0020F6
:10027000A06107202061002010BD0000FFFFFF00EB
:1002800000E000E0FEE700002548416901229204F9
:1002900011434161C16902221143C161C169102248
:1002A0001143C1611F480168120191430160016857
:1002B0000522520211430160016A11221204114306
:1002C00001621948002181610162816001608169D8
:1002D000FF22023211438161816803221143816050
:1002E0001249C16249104162026801210A43026059
:1002F0000F480B2282620F4AC262C2680A43C26080
:1003000002680A4302600C49401308600B49086800
:10031000FF22120290430122D2031043086070476B
:10032000001002400004004800040040FFFF0000ED
:10033000001000403075000000E100E010E400E033
:10034000184841690122D20411434161C269012167
:1003500089050A43C261144803681122D205134378
:10036000036003688B43036041680523DB02194384
:100370004160C16853101943C160C1681140C16038
:10038000416A0A4A1143416209480169094A114315
:100390000161016801221143016041684822114353
:1003A00041607047001002400004004800105000F7
:1003B00000580040132F40100F4841690122D20419
:1003C000114341610D480168552212031143016038
:1003D0000268012149038A430260426840239A432C
:1003E000426083684A1093438360C3689343C36049
:1003F000C2688A43C260704700100240000800488B
:1004000000B500F003F8FFF73FFF00BD1948416950
:100410000122520411434161C26981150A43C2613C
:100420000920C0060268144B1A43026002688A431E
:100430000260016A0F22120491430162016A0122E3
:100440009204114301620D48002101608161016243
:10045000826968231A438261036A0122134303629B
:1004600082624B231B01C362416301681143016037
:1004700070470000001002400002140000200040FD
:1004800010B5FFF79DFE184841690122D2041143BF
:100490004161C16952101143C16114484521C160D5
:1004A00001680822114301600168042211430160C0
:1004B000016801221143016001682022114301609B
:1004C0000B48016805225202114301600168FF22B6
:1004D000013291430160016A112212041143016249
:1004E00004498004086010BD00100240004800402C
:1004F0000008004800E100E070B52C4900268E5F3E
:10050000FF2201322A48402380245500002E12D0B9
:10051000012E1ED0022E2AD0032E37D04169A143CE
:100520004161416999434161416991434161416937
:10053000A943416170BD46691643466142699A43C9
:1005400042614269A24342614269AA4342615A2020
:100550002AE046691E4346614369A34343614369F8
:10056000934343614269AA434261B4201CE0466957
:100570002E43466145699D4345614369A3434361F9
:10058000436993434361FF200F300DE046692643E2
:10059000466144699C4344614369934343614269B2
:1005A000AA434261FF206930488070BD04000020EA
:1005B00000080048FEE710B50446002000F08CF962
:1005C000208010BD70B5374CE37801214902092025
:1005D0004A00C006002B06D0E378012B0ED0E3784A
:1005E000022B17D023E043690B43436141699143D8
:1005F0004161208961894000401A09E04369134341
:10060000436142698A434261208961894000401800
:10061000A0810CE0092345691D42FCD143698B434D
:1006200043614169C906FCD4416991434161062295
:10063000A25E1920C0010021824201DBE08004E0BB
:100640000620205E002800DCE1800E22A25E6420ED
:10065000642A01DBE08104E00E22A25E002A00DCB5
:10066000E1812179642900D920710C21615E64291E
:1006700000DDA081A089A1784843E1884018E0808E
:100680006078A1894843E1884018E0810E20205E0F
:100690004011E081E089C0B200F006F8E0892070E6
:1006A00070BD00000A00002010B5642806D8044C74
:1006B000E26A64215043FFF71DFD606310BD000036
:1006C0000020004070470000034881694907FCD5BD
:1006D000406AC0B2704700000058004010B50446A0
:1006E000012000F045F8A0B200F082F8012000F0EF
:1006F00033F8FFF7E9FF034600F046F8184610BD4F
:100700000348C1698906FCD5406AC0B27047000041
:1007100000480040054904E0CB691B06FCD58A620D
:10072000401C0278002AF7D17047000000480040C2
:100730007047000007494A68FF231B049A434A6038
:100740004A6800044B14184302434A604868800416
:10075000FCD470470058004000B504494A680B15A6
:100760001A434A60FFF7E6FF00BD00000058004052
:1007700000B504494A680B159A434A60FFF7DAFF4F
:1007800000BD0000005800400448416802141143B5
:10079000416041684904FCD47047000000580040A3
:1007A00010B5FFF705FD10BD7047000010B50C49EE
:1007B000486A0C4A82180C4842810A4A52424A62EC
:1007C0000A21415ECA0F5118491000D549420171F2
:1007D000FFF7F8FE0548016949084900016110BDAD
:1007E000000400400180FFFF0A00002000100040CC
:1007F000024988628869C007FCD0704700580040F1
:1008000010B590B0034609A24021684600F074F884
:10081000002107486A4604E0C4692406FCD58362C7
:10082000491C535C002BF7D110B010BD25640000AB
:100830000048004000B5214A00231370FFF760FF15
:1008400010701078642803D810781D490880137040
:100850001078652807D310786F2804D810781949C4
:100860006538087013701078702807D310787A28CC
:1008700004D8107814497038087013701178134830
:100880007B2901D10370137011787C2902D10121D9
:100890000170137011787D2902D10221017013704B
:1008A00010787E2808D1BFF34F8F0A490848C860E6
:1008B000BFF34F8F00BFFDE700BD00000800002020
:1008C000120000200C0000200B0000200D00002072
:1008D0000400FA0500ED00E070B50446FFF7FEFEE7
:1008E00005022046FFF7FAFE05437D2128B2C90024
:1008F000FFF716FC00B270BD0FB47CB50C0009AD5B
:1009000001D0611E00E0002101910090074B6A4672
:100910002946089800F03EF8002C02D0009A0021E9
:1009200011707CBC08BC04B018470000E50A000840
:100930008307FF22DB0E9A408907090E99400028A1
:1009400008DB830809489B001B181868904308437C
:10095000186070470007000F0838830804489B00A0
:100960001B18D86990430843D861704700E400E041
:1009700000ED00E002E008C8121F08C1002AFAD109
:1009800070477047002001E001C1121F002AFBD10F
:1009900070470000FFB58DB00446002506E025280D
:1009A0000AD0109A0F999047641C6D1C207800287B
:1009B000F5D1284611B0F0BD00270121484A009723
:1009C00000E00743641C23780846203B984010420F
:1009D000F7D120782E2817D1042007436078641CB3
:1009E0002A280CD10E98641C02C800910E900BE0CE
:1009F00000990A22514330394018641C0090207835
:100A0000014630390929F3D920780028D1D064284B
:100A100008D0692806D075281ED0109A0F999047E3
:100A20006D1C5BE00A200E99019001C90E9100280F
:100A300002DA40422D2102E0390504D52B216A4615
:100A40001172012103E0F90704D02021F7E70BAE72
:100A50000B910DE00021FAE70A200E99019001C9DF
:100A60000E91F7E70199FFF745FB3031761E3170A3
:100A70000028F7D103A8801B20300190780701D50A
:100A8000009801E0012000900199884201DD401AA0
:100A900000E000200027009006E002A8109AC05D48
:100AA0000F9990476D1C7F1C0B988742F5DB04E083
:100AB000109A30200F9990476D1C0099481E0090A5
:100AC0000029F5DC05E03078109A761C0F999047E4
:100AD0006D1C0199481E01900029F4DC641C65E737
:100AE000092801004A68002A06D00A68531C0B60D6
:100AF00010704868401E486070470000FFF7C0FC57
:100B0000FFF77EFCFFF71CFCFFF756FC1648FFF7CB
:100B10002DFB154C154D164E164F1748FFF74BFD84
:100B2000FFF7EAFC2878FFF76BFE14A0FFF7F2FD51
:100B30000020305EFFF764FE12A0FFF7EBFD0020FF
:100B4000385EFFF75DFE11A0FFF7E4FD2068FFF7B8
:100B500057FE10A0FFF7DEFD10A0FFF7DBFD3220EF
:100B6000FFF70EFBD9E70000000000200E00002078
:100B70001600002006000020040000207370656548
:100B8000643A00006572726F723A0000726F7461AD
:100B9000743A000064657669633A00000D0A00004B
:100BA000C00B0008000000202C00000074090008A1
:100BB000EC0B00082C00002004040000840900084D
:100BC0000000000000000000000000000002000023
:100BD0000000000000000000000000000100000014
:0C0BE000040000000000000000127A0079
:04000005080000C12E
:00000001FF
